:020000040000fa
:080000000001040000000000f3
:020000040000fa
:0400080018020000da
:020000040000fa
:04000c005a02000094
:020000040000fa
:040010009a02000050
:020000040000fa
:0400140038020000ae
:020000040000fa
:040018007a02000068
:020000040000fa
:04001c004a03000093
:020000040000fa
:04002000ba02000020
:020000040000fa
:040024004a0300008b
:020000040000fa
:040028004a03000087
:020000040000fa
:04002c004a03000083
:020000040000fa
:040030004a0300007f
:020000040000fa
:040034004a0300007b
:020000040000fa
:040038004a03000077
:020000040000fa
:04003c004a03000073
:020000040000fa
:040040004a0300006f
:020000040000fa
:040044004a0300006b
:020000040000fa
:04004800140300009d
:020000040000fa
:04004c004a03000063
:020000040000fa
:040050004a0300005f
:020000040000fa
:040054004a0300005b
:020000040000fa
:040058004a03000057
:020000040000fa
:04005c004a03000053
:020000040000fa
:040060004a0300004f
:020000040000fa
:040064004a0300004b
:020000040000fa
:040068004a03000047
:020000040000fa
:04006c004a03000043
:020000040000fa
:040070004a0300003f
:020000040000fa
:04007400da020000ac
:020000040000fa
:040078004a03000037
:020000040000fa
:04007c004a03000033
:020000040000fa
:040080004a0300002f
:020000040000fa
:040084004a0300002b
:020000040000fa
:040088004a03000027
:020000040000fa
:04008c004a03000023
:020000040000fa
:040090004a0300001f
:020000040000fa
:040094004a0300001b
:020000040000fa
:040098004a03000017
:020000040000fa
:04009c004a03000013
:020000040000fa
:0400a0004a0300000f
:020000040000fa
:0400a4004a0300000b
:020000040000fa
:0400a8004a03000007
:020000040000fa
:0400ac004a03000003
:020000040000fa
:0400b0004a030000ff
:020000040000fa
:0400b4004a030000fb
:020000040000fa
:0400b8004a030000f7
:020000040000fa
:0400bc004a030000f3
:020000040000fa
:0400c0004a030000ef
:020000040000fa
:0400c4004a030000eb
:020000040000fa
:0400c8004a030000e7
:020000040000fa
:0400cc004a030000e3
:020000040000fa
:0400d0004a030000df
:020000040000fa
:0400d4004a030000db
:020000040000fa
:0400d8004a030000d7
:020000040000fa
:0400dc004a030000d3
:020000040000fa
:0400e0004a030000cf
:020000040000fa
:0400e4004a030000cb
:020000040000fa
:0400e8004a030000c7
:020000040000fa
:0400ec004a030000c3
:020000040000fa
:0400f0004a030000bf
:020000040000fa
:0400f4004a030000bb
:020000040000fa
:0400f8004a030000b7
:020000040000fa
:0400fc004a030000b3
:020000040000fa
:040100004a030000ae
:020000040000fa
:040104004a030000aa
:020000040000fa
:040108004a030000a6
:020000040000fa
:04010c004a030000a2
:020000040000fa
:040110004a0300009e
:020000040000fa
:040114004a0300009a
:020000040000fa
:040118004a03000096
:020000040000fa
:04011c004a03000092
:020000040000fa
:040120004a0300008e
:020000040000fa
:040124004a0300008a
:020000040000fa
:040128004a03000086
:020000040000fa
:04012c004a03000082
:020000040000fa
:040130004a0300007e
:020000040000fa
:040134004a0300007a
:020000040000fa
:040138004a03000076
:020000040000fa
:04013c004a03000072
:020000040000fa
:040140004a0300006e
:020000040000fa
:040144004a0300006a
:020000040000fa
:040148004a03000066
:020000040000fa
:04014c004a03000062
:020000040000fa
:040150004a0300005e
:020000040000fa
:040154004a0300005a
:020000040000fa
:040158004a03000056
:020000040000fa
:04015c004a03000052
:020000040000fa
:040160004a0300004e
:020000040000fa
:040164004a0300004a
:020000040000fa
:040168004a03000046
:020000040000fa
:04016c004a03000042
:020000040000fa
:040170004a0300003e
:020000040000fa
:040174004a0300003a
:020000040000fa
:040178004a03000036
:020000040000fa
:04017c004a03000032
:020000040000fa
:040180004a0300002e
:020000040000fa
:040184004a0300002a
:020000040000fa
:040188004a03000026
:020000040000fa
:04018c004a03000022
:020000040000fa
:040190004a0300001e
:020000040000fa
:040194004a0300001a
:020000040000fa
:040198004a03000016
:020000040000fa
:04019c004a03000012
:020000040000fa
:0401a0004a0300000e
:020000040000fa
:0401a4004a0300000a
:020000040000fa
:0401a8004a03000006
:020000040000fa
:0401ac004a03000002
:020000040000fa
:0401b0004a030000fe
:020000040000fa
:0401b4004a030000fa
:020000040000fa
:0401b8004a030000f6
:020000040000fa
:0401bc004a030000f2
:020000040000fa
:0401c0004a030000ee
:020000040000fa
:0401c4004a030000ea
:020000040000fa
:0401c8004a030000e6
:020000040000fa
:0401cc004a030000e2
:020000040000fa
:0401d0004a030000de
:020000040000fa
:0401d4004a030000da
:020000040000fa
:0401d8004a030000d6
:020000040000fa
:0401dc004a030000d2
:020000040000fa
:0401e0004a030000ce
:020000040000fa
:0401e4004a030000ca
:020000040000fa
:0401e8004a030000c6
:020000040000fa
:0401ec004a030000c2
:020000040000fa
:0401f0004a030000be
:020000040000fa
:0401f4004a030000ba
:020000040000fa
:0401f8004a030000b6
:020000040000fa
:0401fc004a030000b2
:020000040000fa
:10020000af8a20000eff27000e01880000000000ca
:10021000000020000000e000020032000001200089
:1002200020028800140007001c0107000000e00005
:1002300003003a00a0c8200001002000020037009f
:100240000000200001002000810f7000010032003a
:1002500014000700000020000000e000020032004f
:100260000000020000000000940e020000000000e8
:100270000040da000000fe004440a90020002000f9
:100280000000e00003003200100020009001880010
:100290004440a800000006008a1f78008b1f7800e9
:1002a00000000600a1028800800478000000eb0036
:1002b0001f003700e284440054a0b4009905ba003e
:1002c000e284440054a0b4009906ba00e2844400d9
:1002d00054a0b4000006eb00476fde00fd07b2003b
:1002e000ae018800636ce10003003a00eaff0700fa
:1002f0000000eb000e003700606ce10008003a00df
:10030000004deb000a05e800020039003420ec0043
:100310000af0a0008b05e900f9ff3e000400370059
:100320006168e100010032000086eb000b0007006d
:1003300019c7ba001905ba000e04e00003003a001c
:100340000a00e000dbff3a0000000600fe07b200f2
:10035000ae0288008a047800f5ff37000cd0a300b5
:10036000e20f4d001c00390089027800354dba00bb
:100370000a05e800020039003420ec000af0a00071
:100380008b05e9000f003200254dba000a05e80090
:10039000020039003420ec000af0a0008b05e900cf
:1003a000080032000c00e0000600320015cdba0053
:1003b0000a05e800020039003420ec000af0a00031
:1003c0008b05e9008984e80054a0b4000b00e0002c
:1003d000e2ff3a00000006009902ba00055d7800cd
:1003e0008b05e900f7ff3200c82ade00055d7800c2
:1003f0008b05e900f3ff32000c00e000f1ff320052
:1004000019ddba00eeff3700900404000000000080
:10041000be04040000000000100b040000000000f7
:10042000100c040000000000ee05040000000000b5
:100430003600f800809fbe00829fbe00849fbe00f1
:10044000869fbe000000fa008020a9000000eb009b
:100450001e0607000080fa004f03be004f02be00d8
:100460004f01be004f00be003600f90000400600fc
:100470003600f800809fbe00829fbe00849fbe00b1
:10048000869fbe000000fa00150607008040a90004
:10049000100020000d0607000080fa004f03be0088
:1004a0004f02be004f01be004f00be003600f900f3
:1004b000004006003600f800809fbe00829fbe000c
:1004c000849fbe00869fbe000000fa008060a900e5
:1004d00020002000fd0507000080fa004f03be0049
:1004e0004f02be004f01be004f00be003600f900b3
:1004f000004006003600f800809fbe00829fbe00cc
:10050000849fbe00869fbe000000fa008080a90084
:1005100030002000ed0507000080fa004f03be0008
:100520004f02be004f01be004f00be003600f90072
:10053000004006003600f800809fbe00829fbe008b
:10054000849fbe00869fbe000000fa008600a900be
:1005500070002000dd0507000080fa004f03be0098
:100560004f02be004f01be004f00be003600f90032
:10057000004006003600f800809fbe00829fbe004b
:10058000849fbe00869fbe000000fa0085e0a9009f
:1005900080002000cd0507000080fa004f03be0058
:1005a0004f02be004f01be004f00be003600f900f2
:1005b000004006003600f800809fbe00829fbe000b
:1005c000849fbe00869fbe000000fa005004800099
:1005d000680060000000e0000c0032001134800070
:1005e00000002200008060000000e00006003200f1
:1005f000c04080000000e00002003200c0408000e7
:100600000000010083a6a9008a60a9000080fa000a
:100610004f03be004f02be004f01be004f00be00a0
:100620003600f900004006003600f800809fbe004a
:10063000829fbe00849fbe00869fbe000000fa001d
:10064000004180000000e000020032000041800014
:1006500000000100908a2000104078008040e800ef
:10066000908a200001487800808a200011c0b300e1
:10067000014878008900a9000080fa004f03be00fd
:100680004f02be004f01be004f00be003600f90011
:10069000004006000040da000000fe0000000500f7
:1006a0008001780002003700815978000201e900da
:0c06b0000200e000fcff3a000000060021
:020000040000fa
:1006bc000000fa006406a8000080fa0000000600a2
:1006cc000000fa006406a9000080fa000000060091
:1006dc000000fa006426a8000080fa000000060062
:1006ec000000fa006426a9000080fa000000060051
:1006fc000000fa0035e7a8000080fa0000000600b0
:10070c000000fa003427a8000080fa000000060060
:10071c000000fa003427a9000080fa00000006004f
:10072c000200fa00000f78001e007800e10f500064
:10073c000d003200e10f500005003900e20f5000af
:10074c000f003200e30f5000130032001800370086
:10075c00d139800000fe2f00008060005000b300f3
:10076c00d039880012003700d139800000fe2f00ec
:10077c0000806000c001b300d03988000c00370045
:10078c00d139800000fe2f0000806000d001b30042
:10079c00d039880006003700d139800000fe2f00c8
:1007ac0000806000e001b300d03988000000000038
:1007bc000080fa00000006000400fa001007980000
:1007cc0001388000010f78001e0078000080fa00cc
:1007dc00000006000400fa0010079800a039800001
:1007ec0000407800614060000080fb0000f0a70032
:1007fc000000ea000000ea004f00de00004f780025
:10080c001e4078000080fa00000006000000fa008c
:10081c00abff0700b2ff0700624080005140800030
:10082c0040408000aa040700b50407000000eb005c
:10083c00d100070012002000030020000049200016
:10084c00990007001200200003002000e04b20005c
:10085c00950007000080fa00000006000000fa0076
:10086c005a00070000408000e10f500008003200e1
:10087c00e10f500003003900e20f50000700320076
:10088c000900370010408000404088000600370007
:10089c00104080005040880003003700104080005a
:1008ac0060408800000000006240800051408000e1
:1008bc0040408000860407000080fa00000006001b
:1008cc000000fa0000408000e10f500008003200e8
:1008dc00e10f500003003900e20f50000700320016
:1008ec000800370010002000004088000700370087
:1008fc002000200000408800040037000028ef0092
:10090c00020037000028ef00000000000080fa0011
:10091c00000006000000fa00100020002e04070062
:10092c000004a2000004e0000800320060ff070091
:10093c00304080000000e00001003a00e0ff0700ba
:10094c004001200030408800070037005cff0700a2
:10095c00304080000000e000030032003040800096
:10096c000000e900304088000080fa00000006001a
:10097c000000fa0020002000170407000004a20069
:10098c000004e0000800320051ff07002040800006
:10099c000000e00001003a00c9ff07004001200000
:1009ac0020408800070037004dff070020408000e2
:1009bc000000e00003003200204080000000e9004d
:1009cc00204088000080fa00000006000200fa00b7
:1009dc000000eb00000f780045ff07000000eb0063
:1009ec004fff070046ff07000000eb00000f7800e8
:1009fc00030037001e0078000000e800000f7800ac
:100a0c001e007800e10f4000faff3a0040ff07009b
:100a1c00000000000000eb006eff07000004a200c5
:100a2c000004e000fbff3a000000eb0062ff07004f
:100a3c00104088000080fa00000006000400fa0054
:100a4c00100798000040eb00004f780011003700b1
:100a5c001e80fb006a00b9008000780040822000f4
:100a6c0000804000900078001e009000808f5000a5
:100a7c0007003a001e80fb006a00b9008000780075
:100a8c0040822000008040008000eb0001087800cc
:100a9c001e4fe8001e407800e94f5000ecff360076
:100aac000080fa00000006000800fa001007980009
:100abc00220798003307980014c8bf000004a20056
:100acc000004e000020032000040eb002800370078
:100adc000040eb00004f7800210037001e80fb0027
:100aec006a00b9008000780040822000008040003d
:100afc00100078000000e00018003a001e80fb0097
:100b0c006a00b9008000780040822000008040001c
:100b1c009e009000010878001e80fb006a00b9005e
:100b2c008000780060822000008040002e01900040
:100b3c00be0190000288be001e80fb006a00b90056
:100b4c0080007800a0822000008140006000b80086
:100b5c000089be0010c0b300050037001e4fe8002e
:100b6c001e407800e94f5000dcff36000040eb00df
:100b7c000080fa00000006000200fa00000f780066
:100b8c001e0078000000e00003003200e10f50006e
:100b9c00090032000b003700420620008000eb00f9
:100bac0040822000bbfe070010c0b30014e8b70061
:100bbc0010c0b300040037001468ef0010c0b3007d
:100bcc00010037000040eb000080fa000000060036
:100bdc000200fa000040eb00004f780036003700ae
:100bec001e80fb006a00b900800078004082200063
:100bfc0000804000100078000000e0002d00320062
:100c0c001e81fb006a10b90000007800e60040006d
:100c1c0040822000008040001000be0061004000b7
:100c2c00e08048006a11b90082017800a28220009d
:100c3c00028141000089be001e80fb006a00b900e1
:100c4c0000007800e6004000408220000080400058
:100c5c001001be001e80fb006a00b9000000780085
:100c6c008080e80040822000008040001000be0020
:100c7c00800f5100818f59000e003a001e80fb003e
:100c8c006a00b9008000780040822000008040009b
:100c9c0010007800000001001e80fb006a00b90003
:100cac0080007800a0822000008140006000b80025
:100cbc000089be001e4fe8001e407800e94f50002e
:100ccc00c7ff36000080fa00000006000000fa00a2
:100cdc0040002000201988002623ef002823ef0075
:100cec0000102000501988002c23ef002e23ef0059
:100cfc003023ef003423ef003623ef00f0ff230006
:100d0c00c01988003a23ef003c23ef00f0ff2100cc
:100d1c00001a88004423ef004623ef0025e3a800c7
:100d2c0020198000004078006f4060000080fb00bc
:100d3c00f04088000080fa00000006000000fa0075
:100d4c000080fa00000006000000fa005104800048
:100d5c0000042000008060000000e000020032006f
:100d6c00f6ff07008ac0a9000080fa000000060008
:100d7c000000fa000080fa00000006000000fa00f3
:100d8c006104800000002800008060000000e0008a
:100d9c0002003200f6ff07008de0a9000080fa0087
:100dac00000006000000fa0025e3a8000080fa000d
:100dbc00000006000000fa0025e3a9000080fa00fc
:100dcc00000006000200fa00000f78009e00780078
:100ddc00e11988000080fa00000006000400fa0007
:100dec00000f7800110798009e007800e119880028
:100dfc009e009000011a88000080fa000000060096
:100e0c000400fa00000f7800110798009e0078008b
:100e1c00e11988009e009000011a88000080fa00f9
:100e2c00000006000400fa00000f7800110798007b
:100e3c009e007800e11988009e009000011a88003d
:100e4c000080fa00000006000400fa00000f780091
:100e5c00110798009e007800e11988009e00900010
:100e6c00011a88000080fa00000006000200fa0057
:100e7c00000f78009e007800e11988000080fa00cd
:100e8c00000006000000fa00500480004600de005e
:100e9c00614060000080fb0000f0a7000000ea0049
:100eac000000ea004f00de00004078000080fa00ed
:100ebc00000006000000fa00801980004700de00e8
:100ecc00614060000080fb0000f0a7000000ea0019
:100edc000000ea004f00de00004078000080fa00bd
:100eec00000006000000fa0030c3a8000080fa00e1
:100efc00000006000000fa0030a3a9000080fa00f0
:100f0c00000006000000fa00801980004300de009b
:100f1c00614060000080fb0000f0a7000000ea00c8
:100f2c000000ea004f00de00004078000080fa006c
:100f3c00000006000000fa003063a9000080fa00ef
:100f4c00000006000000fa00400020000018880095
:100f5c000223ef000423ef0000102000301888005b
:100f6c000823ef000a23ef000c23ef001023ef00ff
:100f7c001223ef00f0ff2300a01888001623ef00c7
:100f8c001823ef00f0ff2100e01888002023ef0069
:100f9c002223ef0001e3a800001880000040780035
:100fac006f4060000080fb00104188000080fa0058
:100fbc00000006000000fa000080fa0000000600a5
:100fcc000000fa00910480000000280000806000fe
:100fdc000000e00002003200f6ff070093e0a900d9
:100fec000080fa00000006000000fa000080fa0001
:100ffc00000006000000fa006104800000002100df
:10100c00008060000000e00002003200f6ff0700e4
:10101c008d80a9000080fa00000006000000fa0094
:10102c0001e3a8000080fa00000006000000fa00ae
:10103c0001e3a9000080fa00000006000200fa009b
:10104c00000f78009e007800c11888000080fa001c
:10105c00000006000400fa00000f78001107980049
:10106c009e007800c11888009e009000e11888004e
:10107c000080fa00000006000400fa00000f78005f
:10108c00110798009e007800c11888009e009000ff
:10109c00e11888000080fa00000006000400fa0045
:1010ac00000f7800110798009e007800c118880086
:1010bc009e009000e11888000080fa0000000600f5
:1010cc000400fa00000f7800110798009e007800c9
:1010dc00c11888009e009000e11888000080fa007a
:1010ec00000006000200fa00000f78009e00780055
:1010fc00c11888000080fa00000006000000fa0009
:10110c00900480004f00de00004078000080fb005f
:10111c0000f0a7000000ea000000ea004f00de002b
:10112c00004078000080fa00000006000000fa0081
:10113c00601880004700de00614060000080fb000a
:10114c0000f0a7000000ea000000ea004f00de00fb
:10115c00004078000080fa00000006000000fa0051
:10116c000cc3a8000080fa00000006000000fa0082
:10117c000ca3a9000080fa00000006000000fa0091
:10118c00601880004300de00614060000080fb00be
:10119c0000f0a7000000ea000000ea004f00de00ab
:1011ac00004078000080fa00000006000000fa0001
:1011bc000c63a9000080fa00000006000000fa0091
:1011cc0040002000401a88004a23ef004c23ef0017
:1011dc0000102000701a88005023ef005223ef00fb
:1011ec005423ef005823ef005a23ef00f0ff2300a5
:1011fc00e01a88005e23ef006023ef00f0ff21006f
:10120c00201b88006823ef006a23ef0049e3a80045
:10121c00401a8000004078006f4060000080fb00a6
:10122c00d04088000080fa00000006000000fa00a0
:10123c000080fa00000006000000fa005104800053
:10124c0000082000008060000000e0000200320076
:10125c00f6ff07008ae0a9000080fa0000000600f3
:10126c000000fa000080fa00000006000000fa00fe
:10127c0070048000610060000000e0000200320099
:10128c00f7ff07008e00a9000080fa00000006009e
:10129c000000fa0049e3a8000080fa0000000600f4
:1012ac000000fa0049e3a9000080fa0000000600e3
:1012bc000200fa00000f78009e007800011b8800e5
:1012cc000080fa00000006000400fa00000f78000d
:1012dc00110798009e007800011b88009e0090006a
:1012ec00211b88000080fa00000006000400fa00b0
:1012fc00000f7800110798009e007800011b8800f1
:10130c009e009000211b88000080fa00000006005f
:10131c000400fa00000f7800110798009e00780076
:10132c00011b88009e009000211b88000080fa00a1
:10133c00000006000400fa00000f78001107980066
:10134c009e007800011b88009e009000211b8800e5
:10135c000080fa00000006000200fa00000f78007e
:10136c009e007800011b88000080fa000000060037
:10137c000000fa00500480004700de00614060006d
:10138c000080fb0000f0a7000000ea000000ea006b
:10139c004f00de00004078000080fa0000000600dc
:1013ac000000fa00a01a80004700de0061406000d7
:1013bc000080fb0000f0a7000000ea000000ea003b
:1013cc004f00de00004078000080fa0000000600ac
:1013dc000000fa0054c3a8000080fa0000000600c8
:1013ec000000fa0054a3a9000080fa0000000600d7
:1013fc000000fa00a01a80004300de00614060008b
:10140c000080fb0000f0a7000000ea000000ea00ea
:10141c004f00de00004078000080fa00000006005b
:10142c000000fa005463a9000080fa0000000600d6
:10143c000000fa006426ef007826ef008c26ef00ff
:10144c00a026ef00b426ef00c826ef00dc26ef0044
:10145c00f026ef00c06f2c00003388000080eb00fa
:10146c00a0338800e001270040348800f01f2f00d3
:10147c00e0348800f03f200080358800f01b23000a
:10148c0020368800f03c2f00c03688001000200069
:10149c00603788007226ef008626ef009a26ef0050
:1014ac00ae26ef00c226ef00d626ef00ea26ef00ac
:1014bc00fe26ef007026ef008426ef009826ef0042
:1014cc00ac26ef00c026ef00d426ef00e826ef0094
:1014dc00fc26ef007226ef008626ef009a26ef001e
:1014ec00ae26ef00c226ef00d626ef00ea26ef006c
:1014fc00fe26ef007026ef008426ef009826ef0002
:10150c00ac26ef00c026ef00d426ef00e826ef0053
:10151c00fc26ef006626ef007a26ef008e26ef0001
:10152c00a226ef00b626ef00ca26ef00de26ef005b
:10153c00f226ef00000c200040338800c0ff2d0085
:10154c00e03388000001200080348800000c20006b
:10155c002035880080212000c0358800003c200008
:10156c000037880001088000f00b2000008160002b
:10157c0060042000710520000310200080497800d1
:10158c008149780082497800b13e8000f00f280034
:10159c00808060000020210001007000b03e8800b7
:1015ac00013f800000f82f00008060004001b30074
:1015bc00003f8800c13e800000f82f0000806000d2
:1015cc000040a000c03e88000008800000017800a8
:1015dc000260a000600420007105200003102000b0
:1015ec0080497800814978008249780081a6a8005a
:1015fc007fa6a80083a6a9005de6a80000b1200084
:10160c00070007008a60a9009a60a8000080fa0011
:10161c00000006000000fa000080fa00000006003e
:10162c000200fa00000f78009a60a9009e00780072
:10163c00c14088009a60a8000080fa0000000600f3
:10164c000200fa00000f78001e007800f4ff07007b
:10165c000080fa00000006000000fa009a21ef005a
:10166c00301f2000f00c880000012800100d8800ad
:10167c00004180000000e00002003a00e05e200023
:10168c00240007008900a9009900a800808a200086
:10169c008040eb00014878000080fa000000060052
:1016ac000200fa00000f78009e007800f10c880010
:1016bc00808a20008040eb00014878000080fa000e
:1016cc00000006000000fa00f00c80000080fa0018
:1016dc00000006000200fa00000f78009e0078005f
:1016ec00d10c8800808a20008040eb0001487800f3
:1016fc000080fa00000006000000fa00d00c800008
:10170c000080fa00000006000000fa000080fa00d9
:10171c00000006000200fa00000f78009900a900f2
:10172c009e007800014188009900a8000080fa0012
:10173c00000006000000fa00808a20008040eb00c8
:10174c00014878009900a800a3e1a8000080fa00e5
:10175c00000006000000fa00a3e1a9009900a9000e
:10176c000080fa00000006000200fa00808a2000c7
:10177c00104f78001e4078000004e0000300320097
:10178c00808a20008040eb00014878001e407800e1
:10179c000080fa00000006000000fa00908a200089
:1017ac00104078000080fb000080fa00000006006a
:1017bc000000fa00908a20008040eb00014878007d
:1017cc000080fa00000006000000fa00004028002b
:1017dc00a03988003627ef00f00f2100c0398800af
:1017ec003a27ef003c27ef003e27ef004027ef00a1
:1017fc0000002100103a88004427ef004627ef0034
:10180c004c27ef0000c12000050007000080fa0003
:10181c00000006000000fa000080fa00000006003c
:10182c000200fa00000f78001e007800e0408800eb
:10183c000080fa00000006000000fa00410480005d
:10184c0000002200008060000000e0000600320072
:10185c00e04080000000e00002003200e040800028
:10186c000000010089a0a9000080fa000000060019
:10187c000000fa003427a8000080fa0000000600df
:10188c000000fa003427a9000080fa0000000600ce
:10189c000800fa0030079800b03980004200de00e2
:1018ac007f4060000080fb00200798000070200043
:1018bc00100798000000eb00000f78000b003700b9
:1018cc001e00780000004000be0090000080400028
:1018dc009e00900091007800010878001e00900096
:1018ec000080e800100798001e0fe8009e007800aa
:1018fc002e009000808f5000f1ff36001e00780003
:08190c000080fa000000060053
:020000040000fa
:101914000008000008000000800000000808000023
:10192400060000008200000058022c00019600000e
:101934000e080000020000008000000010080000f3
:1019440002000000800000001208000002000000f5
:1019540080000000240800006400000080000000f3
:101964001408000002000000800000008808000045
:1019740020000000800000001608000002000000a3
:1019840082000000ffff00001808000002000000b1
:10199400800000001a08000002000000800000001f
:1019a4001c08000002000000800000001e08000067
:1019b4000200000080000000a808000002000000ef
:1019c40080000000200800000200000080000000e9
:1019d4002208000002000000800000000000000057
:020000040000fa
:1019e4000200fa00000f78001e007800e10f50009a
:1019f40003003200e20f50000b00320014003700e5
:101a0400d03680004f00de00004078000080fb00ec
:101a140000f0a7000000ea000000ea004f00de002a
:101a2400004078000b003700f03480004d00de00e9
:101a3400614060000080fb0000f0a7000000ea00a5
:101a44000000ea004f00de0000407800010037008b
:101a54000040eb000080fa00000006000000fa00dd
:101a640000002300100888000621ef006821ef0021
:101a74006a21ef000c21ef000e21ef007821ef0026
:101a84007c21ef007e21ef008021ef008221ef0016
:101a94008421ef008621ef000001eb008007200085
:101aa400a1092000131020008049780081497800a2
:101ab400824978000001eb006004200071052000d9
:101ac4000310200080497800814978008249780019
:101ad4000080fa00000006000600fa00000f7800fb
:101ae40011079800220798001e0078006200070082
:101af4001e009000450007002e00900028000700fb
:101b04000080fa00000006000000fa00460007000a
:101b14000f000700290007000080fa0000000600fb
:101b24000000fa00460007000f0007002900070024
:101b34000080fa00000006000000fa0045000700db
:101b44000e000700280007000080fa0000000600cd
:101b54000000fa00d0fd070010c0b3000ee8b70083
:101b64000080fa00000006000000fa00cefd070025
:101b74000e68ef000080fa00000006000000fa0082
:101b84000ec8bf000004e00002003200f6ff0700a8
:101b940001003700eeff07000080fa000000060095
:101ba4000200fa00000f78009e0078000000eb00ad
:101bb400c7fd07000080fa00000006000000fa00dc
:101bc4007afc070010c0b30010e8b7000080fa00e8
:101bd400000006000000fa0078fc07001068ef001f
:101be4000080fa00000006000000fa0010c8bf00e0
:101bf4000004e00002003200f6ff07000100370095
:101c0400eeff07000080fa00000006000200fa0060
:101c1400000f78009e0078000000eb0071fc0700c4
:101c24000080fa00000006000000fa00fdfc070036
:101c340010c0b30012e8b7000080fa0000000600ec
:101c44000000fa00fbfc07001268ef000080fa00b5
:101c5400000006000000fa0012c8bf000004e00003
:101c640002003200f6ff070001003700eeff070014
:101c74000080fa00000006000200fa00000f78005d
:101c84009e0078000000eb00f4fc07000080fa00de
:101c9400000006000000fa0081058000f0ff280023
:101ca4000080600000c0a0008005880061058000fd
:101cb40080ff2f00008060000000a0006005880005
:101cc4000080fa00000006000200fa00000f78000d
:101cd4009e007800b1408800ffff37000000fa0042
:101ce4008088200080077800008a20000001880096
:101cf4000080fa00000006000000fa00cefd070094
:101d040056ff0700e3ff070090fc07002dfd0700c6
:101d1400f0fb0700aefe070051fe07000080fa004a
:101d2400000006000000fa00f3ff0700b9fa0700fc
:081d3400ccfa0700feff3700a6
:020000040000fa
:02000004000af0
:04be0000ffffff0041
:020000040000fa
:02000004000af0
:04be2000ffffff0021
:020000040000fa
:02000004000af0
:04be300078ffff0098
:020000040000fa
:02000004000af0
:04be3800b7ffff0051
:020000040000fa
:02000004000af0
:04be40009fffff0061
:020000040000fa
:02000004000af0
:04be4800ffffff00f9
:020000040000fa
:02000004000af0
:04be5000dfffff0011
:020000040000fa
:02000004000af0
:04be58000000ff00e7
:020000040000fa
:02000004000af0
:04be60000000ff00df
:020000040000fa
:02000004000af0
:04be68000000ff00d7
:020000040000fa
:02000004000af0
:04be70000000ff00cf
:020000040000fa
:02000004000af0
:04be7800ffffff00c9
:020000040000fa
:02000004000af0
:04be8000ffffff00c1
:020000040000fa
:020000040100f9
:04300000ffffff00cf
:00000001FF
